{
  "_format": "hh-sol-artifact-1",
  "contractName": "TodoList",
  "sourceName": "contracts/Todo.sol",
  "abi": [
    {
      "inputs": [],
      "stateMutability": "nonpayable",
      "type": "constructor"
    },
    {
      "anonymous": false,
      "inputs": [
        {
          "indexed": true,
          "internalType": "uint256",
          "name": "id",
          "type": "uint256"
        }
      ],
      "name": "TodoItemCompleted",
      "type": "event"
    },
    {
      "anonymous": false,
      "inputs": [
        {
          "indexed": true,
          "internalType": "uint256",
          "name": "id",
          "type": "uint256"
        },
        {
          "indexed": false,
          "internalType": "string",
          "name": "title",
          "type": "string"
        },
        {
          "indexed": false,
          "internalType": "string",
          "name": "detail",
          "type": "string"
        },
        {
          "indexed": false,
          "internalType": "uint256",
          "name": "date",
          "type": "uint256"
        }
      ],
      "name": "TodoItemCreated",
      "type": "event"
    },
    {
      "anonymous": false,
      "inputs": [
        {
          "indexed": true,
          "internalType": "uint256",
          "name": "id",
          "type": "uint256"
        },
        {
          "indexed": false,
          "internalType": "string",
          "name": "title",
          "type": "string"
        },
        {
          "indexed": false,
          "internalType": "string",
          "name": "detail",
          "type": "string"
        },
        {
          "indexed": false,
          "internalType": "uint256",
          "name": "date",
          "type": "uint256"
        },
        {
          "indexed": false,
          "internalType": "bool",
          "name": "completed",
          "type": "bool"
        }
      ],
      "name": "TodoItemUpdated",
      "type": "event"
    },
    {
      "inputs": [
        {
          "internalType": "uint256",
          "name": "id",
          "type": "uint256"
        }
      ],
      "name": "completeTodoItem",
      "outputs": [],
      "stateMutability": "nonpayable",
      "type": "function"
    },
    {
      "inputs": [
        {
          "internalType": "string",
          "name": "title",
          "type": "string"
        },
        {
          "internalType": "string",
          "name": "detail",
          "type": "string"
        },
        {
          "internalType": "uint256",
          "name": "date",
          "type": "uint256"
        }
      ],
      "name": "createTodoItem",
      "outputs": [],
      "stateMutability": "nonpayable",
      "type": "function"
    },
    {
      "inputs": [
        {
          "internalType": "uint256",
          "name": "id",
          "type": "uint256"
        }
      ],
      "name": "getTodoItem",
      "outputs": [
        {
          "internalType": "string",
          "name": "title",
          "type": "string"
        },
        {
          "internalType": "string",
          "name": "detail",
          "type": "string"
        },
        {
          "internalType": "uint256",
          "name": "date",
          "type": "uint256"
        },
        {
          "internalType": "bool",
          "name": "completed",
          "type": "bool"
        }
      ],
      "stateMutability": "view",
      "type": "function"
    },
    {
      "inputs": [],
      "name": "getTodoItemCount",
      "outputs": [
        {
          "internalType": "uint256",
          "name": "",
          "type": "uint256"
        }
      ],
      "stateMutability": "view",
      "type": "function"
    },
    {
      "inputs": [],
      "name": "owner",
      "outputs": [
        {
          "internalType": "address",
          "name": "",
          "type": "address"
        }
      ],
      "stateMutability": "view",
      "type": "function"
    },
    {
      "inputs": [
        {
          "internalType": "uint256",
          "name": "id",
          "type": "uint256"
        },
        {
          "internalType": "string",
          "name": "title",
          "type": "string"
        },
        {
          "internalType": "string",
          "name": "detail",
          "type": "string"
        },
        {
          "internalType": "uint256",
          "name": "date",
          "type": "uint256"
        }
      ],
      "name": "updateTodoItem",
      "outputs": [],
      "stateMutability": "nonpayable",
      "type": "function"
    }
  ],
  "bytecode": "0x6080604052348015600f57600080fd5b5033600160006101000a81548173ffffffffffffffffffffffffffffffffffffffff021916908373ffffffffffffffffffffffffffffffffffffffff16021790555061108e806100606000396000f3fe608060405234801561001057600080fd5b50600436106100625760003560e01c8063167744be1461006757806322194c0a14610083578063316fd4411461009f5780638da5cb5b146100d2578063aede2d64146100f0578063f5d3ae2b1461010c575b600080fd5b610081600480360381019061007c9190610901565b61012a565b005b61009d600480360381019061009891906109a0565b6102ab565b005b6100b960048036038101906100b49190610a2b565b610434565b6040516100c99493929190610b01565b60405180910390f35b6100da6105ef565b6040516100e79190610b95565b60405180910390f35b61010a60048036038101906101059190610a2b565b610619565b005b610114610765565b6040516101219190610bb0565b60405180910390f35b600160009054906101000a900473ffffffffffffffffffffffffffffffffffffffff1673ffffffffffffffffffffffffffffffffffffffff163373ffffffffffffffffffffffffffffffffffffffff16146101ba576040517f08c379a00000000000000000000000000000000000000000000000000000000081526004016101b190610c17565b60405180910390fd5b836000805490508110610202576040517f08c379a00000000000000000000000000000000000000000000000000000000081526004016101f990610c83565b60405180910390fd5b600080868154811061021757610216610ca3565b5b90600052602060002090600402019050848160000190816102389190610ede565b508381600101908161024a9190610ede565b50828160020181905550857f6ee4379fe3ab38525626bfa5be8492843d3aea936d280cefa601d94a4e329c058686868560030160009054906101000a900460ff1660405161029b9493929190610b01565b60405180910390a2505050505050565b600160009054906101000a900473ffffffffffffffffffffffffffffffffffffffff1673ffffffffffffffffffffffffffffffffffffffff163373ffffffffffffffffffffffffffffffffffffffff161461033b576040517f08c379a000000000000000000000000000000000000000000000000000000000815260040161033290610c17565b60405180910390fd5b60006040518060800160405280858152602001848152602001838152602001600015158152509080600181540180825580915050600190039060005260206000209060040201600090919091909150600082015181600001908161039f9190610ede565b5060208201518160010190816103b59190610ede565b506040820151816002015560608201518160030160006101000a81548160ff021916908315150217905550505060016000805490506103f49190610fdf565b7f95592f7f3ecaf18da00b2584e2dba6df8a6f6a19f8bb172ce73efe6b96e810ce84848460405161042793929190611013565b60405180910390a2505050565b606080600080846000805490508110610482576040517f08c379a000000000000000000000000000000000000000000000000000000000815260040161047990610c83565b60405180910390fd5b600080878154811061049757610496610ca3565b5b90600052602060002090600402019050806000018160010182600201548360030160009054906101000a900460ff168380546104d290610d01565b80601f01602080910402602001604051908101604052809291908181526020018280546104fe90610d01565b801561054b5780601f106105205761010080835404028352916020019161054b565b820191906000526020600020905b81548152906001019060200180831161052e57829003601f168201915b5050505050935082805461055e90610d01565b80601f016020809104026020016040519081016040528092919081815260200182805461058a90610d01565b80156105d75780601f106105ac576101008083540402835291602001916105d7565b820191906000526020600020905b8154815290600101906020018083116105ba57829003601f168201915b50505050509250955095509550955050509193509193565b6000600160009054906101000a900473ffffffffffffffffffffffffffffffffffffffff16905090565b600160009054906101000a900473ffffffffffffffffffffffffffffffffffffffff1673ffffffffffffffffffffffffffffffffffffffff163373ffffffffffffffffffffffffffffffffffffffff16146106a9576040517f08c379a00000000000000000000000000000000000000000000000000000000081526004016106a090610c17565b60405180910390fd5b8060008054905081106106f1576040517f08c379a00000000000000000000000000000000000000000000000000000000081526004016106e890610c83565b60405180910390fd5b600080838154811061070657610705610ca3565b5b9060005260206000209060040201905060018160030160006101000a81548160ff021916908315150217905550827f334707e1885d3f2d4849c799cb87d5a3a2374d860fd68b5d24dfe68bb2f020ae60405160405180910390a2505050565b60008080549050905090565b6000604051905090565b600080fd5b600080fd5b6000819050919050565b61079881610785565b81146107a357600080fd5b50565b6000813590506107b58161078f565b92915050565b600080fd5b600080fd5b6000601f19601f8301169050919050565b7f4e487b7100000000000000000000000000000000000000000000000000000000600052604160045260246000fd5b61080e826107c5565b810181811067ffffffffffffffff8211171561082d5761082c6107d6565b5b80604052505050565b6000610840610771565b905061084c8282610805565b919050565b600067ffffffffffffffff82111561086c5761086b6107d6565b5b610875826107c5565b9050602081019050919050565b82818337600083830152505050565b60006108a461089f84610851565b610836565b9050828152602081018484840111156108c0576108bf6107c0565b5b6108cb848285610882565b509392505050565b600082601f8301126108e8576108e76107bb565b5b81356108f8848260208601610891565b91505092915050565b6000806000806080858703121561091b5761091a61077b565b5b6000610929878288016107a6565b945050602085013567ffffffffffffffff81111561094a57610949610780565b5b610956878288016108d3565b935050604085013567ffffffffffffffff81111561097757610976610780565b5b610983878288016108d3565b9250506060610994878288016107a6565b91505092959194509250565b6000806000606084860312156109b9576109b861077b565b5b600084013567ffffffffffffffff8111156109d7576109d6610780565b5b6109e3868287016108d3565b935050602084013567ffffffffffffffff811115610a0457610a03610780565b5b610a10868287016108d3565b9250506040610a21868287016107a6565b9150509250925092565b600060208284031215610a4157610a4061077b565b5b6000610a4f848285016107a6565b91505092915050565b600081519050919050565b600082825260208201905092915050565b60005b83811015610a92578082015181840152602081019050610a77565b60008484015250505050565b6000610aa982610a58565b610ab38185610a63565b9350610ac3818560208601610a74565b610acc816107c5565b840191505092915050565b610ae081610785565b82525050565b60008115159050919050565b610afb81610ae6565b82525050565b60006080820190508181036000830152610b1b8187610a9e565b90508181036020830152610b2f8186610a9e565b9050610b3e6040830185610ad7565b610b4b6060830184610af2565b95945050505050565b600073ffffffffffffffffffffffffffffffffffffffff82169050919050565b6000610b7f82610b54565b9050919050565b610b8f81610b74565b82525050565b6000602082019050610baa6000830184610b86565b92915050565b6000602082019050610bc56000830184610ad7565b92915050565b7f43616c6c6572206973206e6f7420746865206f776e6572000000000000000000600082015250565b6000610c01601783610a63565b9150610c0c82610bcb565b602082019050919050565b60006020820190508181036000830152610c3081610bf4565b9050919050565b7f546f646f206974656d20646f6573206e6f742065786973740000000000000000600082015250565b6000610c6d601883610a63565b9150610c7882610c37565b602082019050919050565b60006020820190508181036000830152610c9c81610c60565b9050919050565b7f4e487b7100000000000000000000000000000000000000000000000000000000600052603260045260246000fd5b7f4e487b7100000000000000000000000000000000000000000000000000000000600052602260045260246000fd5b60006002820490506001821680610d1957607f821691505b602082108103610d2c57610d2b610cd2565b5b50919050565b60008190508160005260206000209050919050565b60006020601f8301049050919050565b600082821b905092915050565b600060088302610d947fffffffffffffffffffffffffffffffffffffffffffffffffffffffffffffffff82610d57565b610d9e8683610d57565b95508019841693508086168417925050509392505050565b6000819050919050565b6000610ddb610dd6610dd184610785565b610db6565b610785565b9050919050565b6000819050919050565b610df583610dc0565b610e09610e0182610de2565b848454610d64565b825550505050565b600090565b610e1e610e11565b610e29818484610dec565b505050565b5b81811015610e4d57610e42600082610e16565b600181019050610e2f565b5050565b601f821115610e9257610e6381610d32565b610e6c84610d47565b81016020851015610e7b578190505b610e8f610e8785610d47565b830182610e2e565b50505b505050565b600082821c905092915050565b6000610eb560001984600802610e97565b1980831691505092915050565b6000610ece8383610ea4565b9150826002028217905092915050565b610ee782610a58565b67ffffffffffffffff811115610f0057610eff6107d6565b5b610f0a8254610d01565b610f15828285610e51565b600060209050601f831160018114610f485760008415610f36578287015190505b610f408582610ec2565b865550610fa8565b601f198416610f5686610d32565b60005b82811015610f7e57848901518255600182019150602085019450602081019050610f59565b86831015610f9b5784890151610f97601f891682610ea4565b8355505b6001600288020188555050505b505050505050565b7f4e487b7100000000000000000000000000000000000000000000000000000000600052601160045260246000fd5b6000610fea82610785565b9150610ff583610785565b925082820390508181111561100d5761100c610fb0565b5b92915050565b6000606082019050818103600083015261102d8186610a9e565b905081810360208301526110418185610a9e565b90506110506040830184610ad7565b94935050505056fea26469706673582212201a1916a66186438fc9126b78e887144917a92084e3ed93fba47d4b3ee107230b64736f6c634300081b0033",
  "linkReferences": {},
  "deployedLinkReferences": {}
}